{
  "_format": "hh-sol-artifact-1",
  "contractName": "socialdappERC721",
  "sourceName": "contracts/socialdappERC721.sol",
  "abi": [
    {
      "inputs": [],
      "stateMutability": "nonpayable",
      "type": "constructor"
    },
    {
      "anonymous": false,
      "inputs": [
        {
          "indexed": true,
          "internalType": "address",
          "name": "owner",
          "type": "address"
        },
        {
          "indexed": true,
          "internalType": "address",
          "name": "approved",
          "type": "address"
        },
        {
          "indexed": true,
          "internalType": "uint256",
          "name": "tokenId",
          "type": "uint256"
        }
      ],
      "name": "Approval",
      "type": "event"
    },
    {
      "anonymous": false,
      "inputs": [
        {
          "indexed": true,
          "internalType": "address",
          "name": "owner",
          "type": "address"
        },
        {
          "indexed": true,
          "internalType": "address",
          "name": "operator",
          "type": "address"
        },
        {
          "indexed": false,
          "internalType": "bool",
          "name": "approved",
          "type": "bool"
        }
      ],
      "name": "ApprovalForAll",
      "type": "event"
    },
    {
      "anonymous": false,
      "inputs": [
        {
          "indexed": false,
          "internalType": "address",
          "name": "sender",
          "type": "address"
        },
        {
          "indexed": false,
          "internalType": "address",
          "name": "receiver",
          "type": "address"
        },
        {
          "indexed": false,
          "internalType": "uint256",
          "name": "amount",
          "type": "uint256"
        },
        {
          "indexed": false,
          "internalType": "string",
          "name": "message",
          "type": "string"
        },
        {
          "indexed": false,
          "internalType": "uint256",
          "name": "timestamp",
          "type": "uint256"
        },
        {
          "indexed": false,
          "internalType": "string",
          "name": "keyword",
          "type": "string"
        }
      ],
      "name": "Transfer",
      "type": "event"
    },
    {
      "anonymous": false,
      "inputs": [
        {
          "indexed": true,
          "internalType": "address",
          "name": "from",
          "type": "address"
        },
        {
          "indexed": true,
          "internalType": "address",
          "name": "to",
          "type": "address"
        },
        {
          "indexed": true,
          "internalType": "uint256",
          "name": "tokenId",
          "type": "uint256"
        }
      ],
      "name": "Transfer",
      "type": "event"
    },
    {
      "inputs": [
        {
          "internalType": "address",
          "name": "to",
          "type": "address"
        },
        {
          "internalType": "uint256",
          "name": "tokenId",
          "type": "uint256"
        }
      ],
      "name": "approve",
      "outputs": [],
      "stateMutability": "nonpayable",
      "type": "function"
    },
    {
      "inputs": [
        {
          "internalType": "address",
          "name": "owner",
          "type": "address"
        }
      ],
      "name": "balanceOf",
      "outputs": [
        {
          "internalType": "uint256",
          "name": "",
          "type": "uint256"
        }
      ],
      "stateMutability": "view",
      "type": "function"
    },
    {
      "inputs": [
        {
          "internalType": "uint256",
          "name": "tokenId",
          "type": "uint256"
        }
      ],
      "name": "getApproved",
      "outputs": [
        {
          "internalType": "address",
          "name": "",
          "type": "address"
        }
      ],
      "stateMutability": "view",
      "type": "function"
    },
    {
      "inputs": [
        {
          "internalType": "address",
          "name": "owner",
          "type": "address"
        },
        {
          "internalType": "address",
          "name": "operator",
          "type": "address"
        }
      ],
      "name": "isApprovedForAll",
      "outputs": [
        {
          "internalType": "bool",
          "name": "",
          "type": "bool"
        }
      ],
      "stateMutability": "view",
      "type": "function"
    },
    {
      "inputs": [
        {
          "internalType": "address",
          "name": "_userOne",
          "type": "address"
        },
        {
          "internalType": "address",
          "name": "_userTwo",
          "type": "address"
        },
        {
          "internalType": "string",
          "name": "tokenURI",
          "type": "string"
        }
      ],
      "name": "mintNFT",
      "outputs": [],
      "stateMutability": "nonpayable",
      "type": "function"
    },
    {
      "inputs": [],
      "name": "name",
      "outputs": [
        {
          "internalType": "string",
          "name": "",
          "type": "string"
        }
      ],
      "stateMutability": "view",
      "type": "function"
    },
    {
      "inputs": [
        {
          "internalType": "uint256",
          "name": "tokenId",
          "type": "uint256"
        }
      ],
      "name": "ownerOf",
      "outputs": [
        {
          "internalType": "address",
          "name": "",
          "type": "address"
        }
      ],
      "stateMutability": "view",
      "type": "function"
    },
    {
      "inputs": [
        {
          "internalType": "address payable",
          "name": "receiver",
          "type": "address"
        },
        {
          "internalType": "uint256",
          "name": "amount",
          "type": "uint256"
        },
        {
          "internalType": "string",
          "name": "message",
          "type": "string"
        },
        {
          "internalType": "string",
          "name": "keyword",
          "type": "string"
        }
      ],
      "name": "publishTransaction",
      "outputs": [],
      "stateMutability": "nonpayable",
      "type": "function"
    },
    {
      "inputs": [
        {
          "internalType": "address",
          "name": "from",
          "type": "address"
        },
        {
          "internalType": "address",
          "name": "to",
          "type": "address"
        },
        {
          "internalType": "uint256",
          "name": "tokenId",
          "type": "uint256"
        }
      ],
      "name": "safeTransferFrom",
      "outputs": [],
      "stateMutability": "nonpayable",
      "type": "function"
    },
    {
      "inputs": [
        {
          "internalType": "address",
          "name": "from",
          "type": "address"
        },
        {
          "internalType": "address",
          "name": "to",
          "type": "address"
        },
        {
          "internalType": "uint256",
          "name": "tokenId",
          "type": "uint256"
        },
        {
          "internalType": "bytes",
          "name": "data",
          "type": "bytes"
        }
      ],
      "name": "safeTransferFrom",
      "outputs": [],
      "stateMutability": "nonpayable",
      "type": "function"
    },
    {
      "inputs": [
        {
          "internalType": "address",
          "name": "operator",
          "type": "address"
        },
        {
          "internalType": "bool",
          "name": "approved",
          "type": "bool"
        }
      ],
      "name": "setApprovalForAll",
      "outputs": [],
      "stateMutability": "nonpayable",
      "type": "function"
    },
    {
      "inputs": [
        {
          "internalType": "bytes4",
          "name": "interfaceId",
          "type": "bytes4"
        }
      ],
      "name": "supportsInterface",
      "outputs": [
        {
          "internalType": "bool",
          "name": "",
          "type": "bool"
        }
      ],
      "stateMutability": "view",
      "type": "function"
    },
    {
      "inputs": [],
      "name": "symbol",
      "outputs": [
        {
          "internalType": "string",
          "name": "",
          "type": "string"
        }
      ],
      "stateMutability": "view",
      "type": "function"
    },
    {
      "inputs": [
        {
          "internalType": "uint256",
          "name": "tokenId",
          "type": "uint256"
        }
      ],
      "name": "tokenURI",
      "outputs": [
        {
          "internalType": "string",
          "name": "",
          "type": "string"
        }
      ],
      "stateMutability": "view",
      "type": "function"
    },
    {
      "inputs": [
        {
          "internalType": "address",
          "name": "from",
          "type": "address"
        },
        {
          "internalType": "address",
          "name": "to",
          "type": "address"
        },
        {
          "internalType": "uint256",
          "name": "tokenId",
          "type": "uint256"
        }
      ],
      "name": "transferFrom",
      "outputs": [],
      "stateMutability": "nonpayable",
      "type": "function"
    }
  ],
  "bytecode": "0x60806040523480156200001157600080fd5b506040518060400160405280600a81526020017f536f6369616c44617070000000000000000000000000000000000000000000008152506040518060400160405280600281526020017f5344000000000000000000000000000000000000000000000000000000000000815250816000908051906020019062000096929190620000b8565b508060019080519060200190620000af929190620000b8565b505050620001cd565b828054620000c69062000168565b90600052602060002090601f016020900481019282620000ea576000855562000136565b82601f106200010557805160ff191683800117855562000136565b8280016001018555821562000136579182015b828111156200013557825182559160200191906001019062000118565b5b50905062000145919062000149565b5090565b5b80821115620001645760008160009055506001016200014a565b5090565b600060028204905060018216806200018157607f821691505b602082108114156200019857620001976200019e565b5b50919050565b7f4e487b7100000000000000000000000000000000000000000000000000000000600052602260045260246000fd5b612a6c80620001dd6000396000f3fe608060405234801561001057600080fd5b50600436106100f55760003560e01c806370a0823111610097578063a22cb46511610066578063a22cb46514610282578063b88d4fde1461029e578063c87b56dd146102ba578063e985e9c5146102ea576100f5565b806370a08231146101fc5780637c818f541461022c5780637d0ee3571461024857806395d89b4114610264576100f5565b8063095ea7b3116100d3578063095ea7b31461017857806323b872dd1461019457806342842e0e146101b05780636352211e146101cc576100f5565b806301ffc9a7146100fa57806306fdde031461012a578063081812fc14610148575b600080fd5b610114600480360381019061010f9190611caa565b61031a565b60405161012191906120a2565b60405180910390f35b6101326103fc565b60405161013f91906120bd565b60405180910390f35b610162600480360381019061015d9190611cfc565b61048e565b60405161016f9190611fcc565b60405180910390f35b610192600480360381019061018d9190611c6e565b6104d4565b005b6101ae60048036038101906101a99190611b68565b6105ec565b005b6101ca60048036038101906101c59190611b68565b61064c565b005b6101e660048036038101906101e19190611cfc565b61066c565b6040516101f39190611fcc565b60405180910390f35b61021660048036038101906102119190611a09565b61071e565b604051610223919061225f565b60405180910390f35b61024660048036038101906102419190611b01565b6107d6565b005b610262600480360381019061025d9190611a32565b61083b565b005b61026c610882565b60405161027991906120bd565b60405180910390f35b61029c60048036038101906102979190611c32565b610914565b005b6102b860048036038101906102b39190611bb7565b61092a565b005b6102d460048036038101906102cf9190611cfc565b61098c565b6040516102e191906120bd565b60405180910390f35b61030460048036038101906102ff9190611ac5565b610a9f565b60405161031191906120a2565b60405180910390f35b60007f80ac58cd000000000000000000000000000000000000000000000000000000007bffffffffffffffffffffffffffffffffffffffffffffffffffffffff1916827bffffffffffffffffffffffffffffffffffffffffffffffffffffffff191614806103e557507f5b5e139f000000000000000000000000000000000000000000000000000000007bffffffffffffffffffffffffffffffffffffffffffffffffffffffff1916827bffffffffffffffffffffffffffffffffffffffffffffffffffffffff1916145b806103f557506103f482610b33565b5b9050919050565b60606000805461040b906124fd565b80601f0160208091040260200160405190810160405280929190818152602001828054610437906124fd565b80156104845780601f1061045957610100808354040283529160200191610484565b820191906000526020600020905b81548152906001019060200180831161046757829003601f168201915b5050505050905090565b600061049982610b9d565b6004600083815260200190815260200160002060009054906101000a900473ffffffffffffffffffffffffffffffffffffffff169050919050565b60006104df8261066c565b90508073ffffffffffffffffffffffffffffffffffffffff168373ffffffffffffffffffffffffffffffffffffffff161415610550576040517f08c379a00000000000000000000000000000000000000000000000000000000081526004016105479061221f565b60405180910390fd5b8073ffffffffffffffffffffffffffffffffffffffff1661056f610be8565b73ffffffffffffffffffffffffffffffffffffffff16148061059e575061059d81610598610be8565b610a9f565b5b6105dd576040517f08c379a00000000000000000000000000000000000000000000000000000000081526004016105d4906121bf565b60405180910390fd5b6105e78383610bf0565b505050565b6105fd6105f7610be8565b82610ca9565b61063c576040517f08c379a00000000000000000000000000000000000000000000000000000000081526004016106339061223f565b60405180910390fd5b610647838383610d3e565b505050565b6106678383836040518060200160405280600081525061092a565b505050565b6000806002600084815260200190815260200160002060009054906101000a900473ffffffffffffffffffffffffffffffffffffffff169050600073ffffffffffffffffffffffffffffffffffffffff168173ffffffffffffffffffffffffffffffffffffffff161415610715576040517f08c379a000000000000000000000000000000000000000000000000000000000815260040161070c906121ff565b60405180910390fd5b80915050919050565b60008073ffffffffffffffffffffffffffffffffffffffff168273ffffffffffffffffffffffffffffffffffffffff16141561078f576040517f08c379a00000000000000000000000000000000000000000000000000000000081526004016107869061217f565b60405180910390fd5b600360008373ffffffffffffffffffffffffffffffffffffffff1673ffffffffffffffffffffffffffffffffffffffff168152602001908152602001600020549050919050565b6107e283600754610fa5565b6107ee6007548261117f565b6007600081548092919061080190612560565b919050555061081282600754610fa5565b61081e6007548261117f565b6007600081548092919061083190612560565b9190505550505050565b7f416cfa4330a4565f45c2fd2dd4826a83a37443aba2ce6f79477c7355afac35fa33858585428660405161087496959493929190611fe7565b60405180910390a150505050565b606060018054610891906124fd565b80601f01602080910402602001604051908101604052809291908181526020018280546108bd906124fd565b801561090a5780601f106108df5761010080835404028352916020019161090a565b820191906000526020600020905b8154815290600101906020018083116108ed57829003601f168201915b5050505050905090565b61092661091f610be8565b83836111f3565b5050565b61093b610935610be8565b83610ca9565b61097a576040517f08c379a00000000000000000000000000000000000000000000000000000000081526004016109719061223f565b60405180910390fd5b61098684848484611360565b50505050565b606061099782610b9d565b60006006600084815260200190815260200160002080546109b7906124fd565b80601f01602080910402602001604051908101604052809291908181526020018280546109e3906124fd565b8015610a305780601f10610a0557610100808354040283529160200191610a30565b820191906000526020600020905b815481529060010190602001808311610a1357829003601f168201915b505050505090506000610a416113bc565b9050600081511415610a57578192505050610a9a565b600082511115610a8c578082604051602001610a74929190611fa8565b60405160208183030381529060405292505050610a9a565b610a95846113d3565b925050505b919050565b6000600560008473ffffffffffffffffffffffffffffffffffffffff1673ffffffffffffffffffffffffffffffffffffffff16815260200190815260200160002060008373ffffffffffffffffffffffffffffffffffffffff1673ffffffffffffffffffffffffffffffffffffffff16815260200190815260200160002060009054906101000a900460ff16905092915050565b60007f01ffc9a7000000000000000000000000000000000000000000000000000000007bffffffffffffffffffffffffffffffffffffffffffffffffffffffff1916827bffffffffffffffffffffffffffffffffffffffffffffffffffffffff1916149050919050565b610ba68161143b565b610be5576040517f08c379a0000000000000000000000000000000000000000000000000000000008152600401610bdc906121ff565b60405180910390fd5b50565b600033905090565b816004600083815260200190815260200160002060006101000a81548173ffffffffffffffffffffffffffffffffffffffff021916908373ffffffffffffffffffffffffffffffffffffffff160217905550808273ffffffffffffffffffffffffffffffffffffffff16610c638361066c565b73ffffffffffffffffffffffffffffffffffffffff167f8c5be1e5ebec7d5bd14f71427d1e84f3dd0314c0f7b2291e5b200ac8c7c3b92560405160405180910390a45050565b600080610cb58361066c565b90508073ffffffffffffffffffffffffffffffffffffffff168473ffffffffffffffffffffffffffffffffffffffff161480610cf75750610cf68185610a9f565b5b80610d3557508373ffffffffffffffffffffffffffffffffffffffff16610d1d8461048e565b73ffffffffffffffffffffffffffffffffffffffff16145b91505092915050565b8273ffffffffffffffffffffffffffffffffffffffff16610d5e8261066c565b73ffffffffffffffffffffffffffffffffffffffff1614610db4576040517f08c379a0000000000000000000000000000000000000000000000000000000008152600401610dab906120ff565b60405180910390fd5b600073ffffffffffffffffffffffffffffffffffffffff168273ffffffffffffffffffffffffffffffffffffffff161415610e24576040517f08c379a0000000000000000000000000000000000000000000000000000000008152600401610e1b9061213f565b60405180910390fd5b610e2f8383836114a7565b610e3a600082610bf0565b6001600360008573ffffffffffffffffffffffffffffffffffffffff1673ffffffffffffffffffffffffffffffffffffffff1681526020019081526020016000206000828254610e8a91906123cb565b925050819055506001600360008473ffffffffffffffffffffffffffffffffffffffff1673ffffffffffffffffffffffffffffffffffffffff1681526020019081526020016000206000828254610ee19190612344565b92505081905550816002600083815260200190815260200160002060006101000a81548173ffffffffffffffffffffffffffffffffffffffff021916908373ffffffffffffffffffffffffffffffffffffffff160217905550808273ffffffffffffffffffffffffffffffffffffffff168473ffffffffffffffffffffffffffffffffffffffff167fddf252ad1be2c89b69c2b068fc378daa952ba7f163c4a11628f55a4df523b3ef60405160405180910390a4610fa08383836114ac565b505050565b600073ffffffffffffffffffffffffffffffffffffffff168273ffffffffffffffffffffffffffffffffffffffff161415611015576040517f08c379a000000000000000000000000000000000000000000000000000000000815260040161100c906121df565b60405180910390fd5b61101e8161143b565b1561105e576040517f08c379a00000000000000000000000000000000000000000000000000000000081526004016110559061211f565b60405180910390fd5b61106a600083836114a7565b6001600360008473ffffffffffffffffffffffffffffffffffffffff1673ffffffffffffffffffffffffffffffffffffffff16815260200190815260200160002060008282546110ba9190612344565b92505081905550816002600083815260200190815260200160002060006101000a81548173ffffffffffffffffffffffffffffffffffffffff021916908373ffffffffffffffffffffffffffffffffffffffff160217905550808273ffffffffffffffffffffffffffffffffffffffff16600073ffffffffffffffffffffffffffffffffffffffff167fddf252ad1be2c89b69c2b068fc378daa952ba7f163c4a11628f55a4df523b3ef60405160405180910390a461117b600083836114ac565b5050565b6111888261143b565b6111c7576040517f08c379a00000000000000000000000000000000000000000000000000000000081526004016111be9061219f565b60405180910390fd5b806006600084815260200190815260200160002090805190602001906111ee929190611818565b505050565b8173ffffffffffffffffffffffffffffffffffffffff168373ffffffffffffffffffffffffffffffffffffffff161415611262576040517f08c379a00000000000000000000000000000000000000000000000000000000081526004016112599061215f565b60405180910390fd5b80600560008573ffffffffffffffffffffffffffffffffffffffff1673ffffffffffffffffffffffffffffffffffffffff16815260200190815260200160002060008473ffffffffffffffffffffffffffffffffffffffff1673ffffffffffffffffffffffffffffffffffffffff16815260200190815260200160002060006101000a81548160ff0219169083151502179055508173ffffffffffffffffffffffffffffffffffffffff168373ffffffffffffffffffffffffffffffffffffffff167f17307eab39ab6107e8899845ad3d59bd9653f200f220920489ca2b5937696c318360405161135391906120a2565b60405180910390a3505050565b61136b848484610d3e565b611377848484846114b1565b6113b6576040517f08c379a00000000000000000000000000000000000000000000000000000000081526004016113ad906120df565b60405180910390fd5b50505050565b606060405180602001604052806000815250905090565b60606113de82610b9d565b60006113e86113bc565b905060008151116114085760405180602001604052806000815250611433565b8061141284611648565b604051602001611423929190611fa8565b6040516020818303038152906040525b915050919050565b60008073ffffffffffffffffffffffffffffffffffffffff166002600084815260200190815260200160002060009054906101000a900473ffffffffffffffffffffffffffffffffffffffff1673ffffffffffffffffffffffffffffffffffffffff1614159050919050565b505050565b505050565b60006114d28473ffffffffffffffffffffffffffffffffffffffff166117f5565b1561163b578373ffffffffffffffffffffffffffffffffffffffff1663150b7a026114fb610be8565b8786866040518563ffffffff1660e01b815260040161151d9493929190612056565b602060405180830381600087803b15801561153757600080fd5b505af192505050801561156857506040513d601f19601f820116820180604052508101906115659190611cd3565b60015b6115eb573d8060008114611598576040519150601f19603f3d011682016040523d82523d6000602084013e61159d565b606091505b506000815114156115e3576040517f08c379a00000000000000000000000000000000000000000000000000000000081526004016115da906120df565b60405180910390fd5b805181602001fd5b63150b7a0260e01b7bffffffffffffffffffffffffffffffffffffffffffffffffffffffff1916817bffffffffffffffffffffffffffffffffffffffffffffffffffffffff191614915050611640565b600190505b949350505050565b60606000821415611690576040518060400160405280600181526020017f300000000000000000000000000000000000000000000000000000000000000081525090506117f0565b600082905060005b600082146116c25780806116ab90612560565b915050600a826116bb919061239a565b9150611698565b60008167ffffffffffffffff811115611704577f4e487b7100000000000000000000000000000000000000000000000000000000600052604160045260246000fd5b6040519080825280601f01601f1916602001820160405280156117365781602001600182028036833780820191505090505b5090505b600085146117e95760018261174f91906123cb565b9150600a8561175e91906125a9565b603061176a9190612344565b60f81b8183815181106117a6577f4e487b7100000000000000000000000000000000000000000000000000000000600052603260045260246000fd5b60200101907effffffffffffffffffffffffffffffffffffffffffffffffffffffffffffff1916908160001a905350600a856117e2919061239a565b945061173a565b8093505050505b919050565b6000808273ffffffffffffffffffffffffffffffffffffffff163b119050919050565b828054611824906124fd565b90600052602060002090601f016020900481019282611846576000855561188d565b82601f1061185f57805160ff191683800117855561188d565b8280016001018555821561188d579182015b8281111561188c578251825591602001919060010190611871565b5b50905061189a919061189e565b5090565b5b808211156118b757600081600090555060010161189f565b5090565b60006118ce6118c98461229f565b61227a565b9050828152602081018484840111156118e657600080fd5b6118f18482856124bb565b509392505050565b600061190c611907846122d0565b61227a565b90508281526020810184848401111561192457600080fd5b61192f8482856124bb565b509392505050565b600081359050611946816129c3565b92915050565b60008135905061195b816129da565b92915050565b600081359050611970816129f1565b92915050565b60008135905061198581612a08565b92915050565b60008151905061199a81612a08565b92915050565b600082601f8301126119b157600080fd5b81356119c18482602086016118bb565b91505092915050565b600082601f8301126119db57600080fd5b81356119eb8482602086016118f9565b91505092915050565b600081359050611a0381612a1f565b92915050565b600060208284031215611a1b57600080fd5b6000611a2984828501611937565b91505092915050565b60008060008060808587031215611a4857600080fd5b6000611a568782880161194c565b9450506020611a67878288016119f4565b935050604085013567ffffffffffffffff811115611a8457600080fd5b611a90878288016119ca565b925050606085013567ffffffffffffffff811115611aad57600080fd5b611ab9878288016119ca565b91505092959194509250565b60008060408385031215611ad857600080fd5b6000611ae685828601611937565b9250506020611af785828601611937565b9150509250929050565b600080600060608486031215611b1657600080fd5b6000611b2486828701611937565b9350506020611b3586828701611937565b925050604084013567ffffffffffffffff811115611b5257600080fd5b611b5e868287016119ca565b9150509250925092565b600080600060608486031215611b7d57600080fd5b6000611b8b86828701611937565b9350506020611b9c86828701611937565b9250506040611bad868287016119f4565b9150509250925092565b60008060008060808587031215611bcd57600080fd5b6000611bdb87828801611937565b9450506020611bec87828801611937565b9350506040611bfd878288016119f4565b925050606085013567ffffffffffffffff811115611c1a57600080fd5b611c26878288016119a0565b91505092959194509250565b60008060408385031215611c4557600080fd5b6000611c5385828601611937565b9250506020611c6485828601611961565b9150509250929050565b60008060408385031215611c8157600080fd5b6000611c8f85828601611937565b9250506020611ca0858286016119f4565b9150509250929050565b600060208284031215611cbc57600080fd5b6000611cca84828501611976565b91505092915050565b600060208284031215611ce557600080fd5b6000611cf38482850161198b565b91505092915050565b600060208284031215611d0e57600080fd5b6000611d1c848285016119f4565b91505092915050565b611d2e81612485565b82525050565b611d3d816123ff565b82525050565b611d4c81612423565b82525050565b6000611d5d82612301565b611d678185612317565b9350611d778185602086016124ca565b611d8081612696565b840191505092915050565b6000611d968261230c565b611da08185612328565b9350611db08185602086016124ca565b611db981612696565b840191505092915050565b6000611dcf8261230c565b611dd98185612339565b9350611de98185602086016124ca565b80840191505092915050565b6000611e02603283612328565b9150611e0d826126a7565b604082019050919050565b6000611e25602583612328565b9150611e30826126f6565b604082019050919050565b6000611e48601c83612328565b9150611e5382612745565b602082019050919050565b6000611e6b602483612328565b9150611e768261276e565b604082019050919050565b6000611e8e601983612328565b9150611e99826127bd565b602082019050919050565b6000611eb1602983612328565b9150611ebc826127e6565b604082019050919050565b6000611ed4602e83612328565b9150611edf82612835565b604082019050919050565b6000611ef7603e83612328565b9150611f0282612884565b604082019050919050565b6000611f1a602083612328565b9150611f25826128d3565b602082019050919050565b6000611f3d601883612328565b9150611f48826128fc565b602082019050919050565b6000611f60602183612328565b9150611f6b82612925565b604082019050919050565b6000611f83602e83612328565b9150611f8e82612974565b604082019050919050565b611fa28161247b565b82525050565b6000611fb48285611dc4565b9150611fc08284611dc4565b91508190509392505050565b6000602082019050611fe16000830184611d34565b92915050565b600060c082019050611ffc6000830189611d34565b6120096020830188611d25565b6120166040830187611f99565b81810360608301526120288186611d8b565b90506120376080830185611f99565b81810360a08301526120498184611d8b565b9050979650505050505050565b600060808201905061206b6000830187611d34565b6120786020830186611d34565b6120856040830185611f99565b81810360608301526120978184611d52565b905095945050505050565b60006020820190506120b76000830184611d43565b92915050565b600060208201905081810360008301526120d78184611d8b565b905092915050565b600060208201905081810360008301526120f881611df5565b9050919050565b6000602082019050818103600083015261211881611e18565b9050919050565b6000602082019050818103600083015261213881611e3b565b9050919050565b6000602082019050818103600083015261215881611e5e565b9050919050565b6000602082019050818103600083015261217881611e81565b9050919050565b6000602082019050818103600083015261219881611ea4565b9050919050565b600060208201905081810360008301526121b881611ec7565b9050919050565b600060208201905081810360008301526121d881611eea565b9050919050565b600060208201905081810360008301526121f881611f0d565b9050919050565b6000602082019050818103600083015261221881611f30565b9050919050565b6000602082019050818103600083015261223881611f53565b9050919050565b6000602082019050818103600083015261225881611f76565b9050919050565b60006020820190506122746000830184611f99565b92915050565b6000612284612295565b9050612290828261252f565b919050565b6000604051905090565b600067ffffffffffffffff8211156122ba576122b9612667565b5b6122c382612696565b9050602081019050919050565b600067ffffffffffffffff8211156122eb576122ea612667565b5b6122f482612696565b9050602081019050919050565b600081519050919050565b600081519050919050565b600082825260208201905092915050565b600082825260208201905092915050565b600081905092915050565b600061234f8261247b565b915061235a8361247b565b9250827fffffffffffffffffffffffffffffffffffffffffffffffffffffffffffffffff0382111561238f5761238e6125da565b5b828201905092915050565b60006123a58261247b565b91506123b08361247b565b9250826123c0576123bf612609565b5b828204905092915050565b60006123d68261247b565b91506123e18361247b565b9250828210156123f4576123f36125da565b5b828203905092915050565b600061240a8261245b565b9050919050565b600061241c8261245b565b9050919050565b60008115159050919050565b60007fffffffff0000000000000000000000000000000000000000000000000000000082169050919050565b600073ffffffffffffffffffffffffffffffffffffffff82169050919050565b6000819050919050565b600061249082612497565b9050919050565b60006124a2826124a9565b9050919050565b60006124b48261245b565b9050919050565b82818337600083830152505050565b60005b838110156124e85780820151818401526020810190506124cd565b838111156124f7576000848401525b50505050565b6000600282049050600182168061251557607f821691505b6020821081141561252957612528612638565b5b50919050565b61253882612696565b810181811067ffffffffffffffff8211171561255757612556612667565b5b80604052505050565b600061256b8261247b565b91507fffffffffffffffffffffffffffffffffffffffffffffffffffffffffffffffff82141561259e5761259d6125da565b5b600182019050919050565b60006125b48261247b565b91506125bf8361247b565b9250826125cf576125ce612609565b5b828206905092915050565b7f4e487b7100000000000000000000000000000000000000000000000000000000600052601160045260246000fd5b7f4e487b7100000000000000000000000000000000000000000000000000000000600052601260045260246000fd5b7f4e487b7100000000000000000000000000000000000000000000000000000000600052602260045260246000fd5b7f4e487b7100000000000000000000000000000000000000000000000000000000600052604160045260246000fd5b6000601f19601f8301169050919050565b7f4552433732313a207472616e7366657220746f206e6f6e20455243373231526560008201527f63656976657220696d706c656d656e7465720000000000000000000000000000602082015250565b7f4552433732313a207472616e736665722066726f6d20696e636f72726563742060008201527f6f776e6572000000000000000000000000000000000000000000000000000000602082015250565b7f4552433732313a20746f6b656e20616c7265616479206d696e74656400000000600082015250565b7f4552433732313a207472616e7366657220746f20746865207a65726f2061646460008201527f7265737300000000000000000000000000000000000000000000000000000000602082015250565b7f4552433732313a20617070726f766520746f2063616c6c657200000000000000600082015250565b7f4552433732313a2061646472657373207a65726f206973206e6f74206120766160008201527f6c6964206f776e65720000000000000000000000000000000000000000000000602082015250565b7f45524337323155524953746f726167653a2055524920736574206f66206e6f6e60008201527f6578697374656e7420746f6b656e000000000000000000000000000000000000602082015250565b7f4552433732313a20617070726f76652063616c6c6572206973206e6f7420746f60008201527f6b656e206f776e6572206e6f7220617070726f76656420666f7220616c6c0000602082015250565b7f4552433732313a206d696e7420746f20746865207a65726f2061646472657373600082015250565b7f4552433732313a20696e76616c696420746f6b656e2049440000000000000000600082015250565b7f4552433732313a20617070726f76616c20746f2063757272656e74206f776e6560008201527f7200000000000000000000000000000000000000000000000000000000000000602082015250565b7f4552433732313a2063616c6c6572206973206e6f7420746f6b656e206f776e6560008201527f72206e6f7220617070726f766564000000000000000000000000000000000000602082015250565b6129cc816123ff565b81146129d757600080fd5b50565b6129e381612411565b81146129ee57600080fd5b50565b6129fa81612423565b8114612a0557600080fd5b50565b612a118161242f565b8114612a1c57600080fd5b50565b612a288161247b565b8114612a3357600080fd5b5056fea26469706673582212208309a50b09ca7cc183b2e9fca8e568b1fb9ca332f2a3e8e2fe9918abcfbc90e364736f6c63430008040033",
  "linkReferences": {},
  "deployedLinkReferences": {}
}